{
  "contractName": "Main",
  "abi": [
    {
      "anonymous": false,
      "inputs": [
        {
          "indexed": true,
          "internalType": "address",
          "name": "previousOwner",
          "type": "address"
        },
        {
          "indexed": true,
          "internalType": "address",
          "name": "newOwner",
          "type": "address"
        }
      ],
      "name": "OwnershipTransferred",
      "type": "event"
    },
    {
      "inputs": [],
      "name": "isOwner",
      "outputs": [
        {
          "internalType": "bool",
          "name": "",
          "type": "bool"
        }
      ],
      "stateMutability": "view",
      "type": "function",
      "constant": true
    },
    {
      "inputs": [],
      "name": "owner",
      "outputs": [
        {
          "internalType": "address",
          "name": "",
          "type": "address"
        }
      ],
      "stateMutability": "view",
      "type": "function",
      "constant": true
    },
    {
      "inputs": [],
      "name": "renounceOwnership",
      "outputs": [],
      "stateMutability": "nonpayable",
      "type": "function"
    },
    {
      "inputs": [
        {
          "internalType": "address",
          "name": "newOwner",
          "type": "address"
        }
      ],
      "name": "transferOwnership",
      "outputs": [],
      "stateMutability": "nonpayable",
      "type": "function"
    },
    {
      "inputs": [
        {
          "internalType": "string",
          "name": "_ipfsHash",
          "type": "string"
        },
        {
          "internalType": "string",
          "name": "_uploadDate",
          "type": "string"
        },
        {
          "internalType": "uint64",
          "name": "_userId",
          "type": "uint64"
        },
        {
          "internalType": "string",
          "name": "_uploader",
          "type": "string"
        }
      ],
      "name": "StoreDocument",
      "outputs": [],
      "stateMutability": "nonpayable",
      "type": "function"
    },
    {
      "inputs": [
        {
          "internalType": "address",
          "name": "_add",
          "type": "address"
        }
      ],
      "name": "ownerVerification",
      "outputs": [],
      "stateMutability": "nonpayable",
      "type": "function"
    },
    {
      "inputs": [
        {
          "internalType": "string",
          "name": "_newHash",
          "type": "string"
        },
        {
          "internalType": "uint64",
          "name": "_adhaar",
          "type": "uint64"
        }
      ],
      "name": "verify",
      "outputs": [],
      "stateMutability": "nonpayable",
      "type": "function"
    },
    {
      "inputs": [
        {
          "internalType": "uint64",
          "name": "_adhaar",
          "type": "uint64"
        }
      ],
      "name": "GetDoc",
      "outputs": [
        {
          "components": [
            {
              "internalType": "uint64",
              "name": "adhaarId",
              "type": "uint64"
            },
            {
              "internalType": "string",
              "name": "ipfsHash",
              "type": "string"
            },
            {
              "internalType": "address",
              "name": "uploader",
              "type": "address"
            },
            {
              "internalType": "string",
              "name": "uploaderName",
              "type": "string"
            },
            {
              "internalType": "string",
              "name": "dateUploaded",
              "type": "string"
            },
            {
              "internalType": "bool",
              "name": "verified",
              "type": "bool"
            }
          ],
          "internalType": "struct Main.document",
          "name": "",
          "type": "tuple"
        }
      ],
      "stateMutability": "view",
      "type": "function",
      "constant": true
    }
  ],
  "bytecode": "0x608060405234801561001057600080fd5b50336000806101000a81548173ffffffffffffffffffffffffffffffffffffffff021916908373ffffffffffffffffffffffffffffffffffffffff16021790555060008054906101000a900473ffffffffffffffffffffffffffffffffffffffff1673ffffffffffffffffffffffffffffffffffffffff16600073ffffffffffffffffffffffffffffffffffffffff167f8be0079c531659141344cd1fd0a4f28419497f9722a3daafe3b4186f6b6457e060405160405180910390a361136e806100db6000396000f3fe608060405234801561001057600080fd5b50600436106100885760003560e01c80638f32d59b1161005b5780638f32d59b146100ed578063ce310e641461010b578063f2fde38b1461013b578063f62238841461015757610088565b806305cdefb91461008d578063715018a6146100a957806385f6bb99146100b35780638da5cb5b146100cf575b600080fd5b6100a760048036038101906100a29190610ce7565b610173565b005b6100b1610372565b005b6100cd60048036038101906100c89190610e00565b610441565b005b6100d76104ae565b6040516100e49190610e3c565b60405180910390f35b6100f56104d7565b6040516101029190610e72565b60405180910390f35b61012560048036038101906101209190610e8d565b61052e565b6040516101329190611006565b60405180910390f35b61015560048036038101906101509190610e00565b610841565b005b610171600480360381019061016c9190611028565b61085e565b005b6001600260003373ffffffffffffffffffffffffffffffffffffffff1673ffffffffffffffffffffffffffffffffffffffff16815260200190815260200160002060009054906101000a900460ff1660ff1614610205576040517f08c379a00000000000000000000000000000000000000000000000000000000081526004016101fc906110e1565b60405180910390fd5b6040518060c001604052808367ffffffffffffffff1681526020018581526020013373ffffffffffffffffffffffffffffffffffffffff16815260200182815260200184815260200160001515815250600160008467ffffffffffffffff1667ffffffffffffffff16815260200190815260200160002060008201518160000160006101000a81548167ffffffffffffffff021916908367ffffffffffffffff16021790555060208201518160010190805190602001906102c7929190610a52565b5060408201518160020160006101000a81548173ffffffffffffffffffffffffffffffffffffffff021916908373ffffffffffffffffffffffffffffffffffffffff160217905550606082015181600301908051906020019061032b929190610a52565b506080820151816004019080519060200190610348929190610a52565b5060a08201518160050160006101000a81548160ff02191690831515021790555090505050505050565b61037a6104d7565b61038357600080fd5b600073ffffffffffffffffffffffffffffffffffffffff1660008054906101000a900473ffffffffffffffffffffffffffffffffffffffff1673ffffffffffffffffffffffffffffffffffffffff167f8be0079c531659141344cd1fd0a4f28419497f9722a3daafe3b4186f6b6457e060405160405180910390a360008060006101000a81548173ffffffffffffffffffffffffffffffffffffffff021916908373ffffffffffffffffffffffffffffffffffffffff160217905550565b6104496104d7565b61045257600080fd5b6001600260008373ffffffffffffffffffffffffffffffffffffffff1673ffffffffffffffffffffffffffffffffffffffff16815260200190815260200160002060006101000a81548160ff021916908360ff16021790555050565b60008060009054906101000a900473ffffffffffffffffffffffffffffffffffffffff16905090565b60008060009054906101000a900473ffffffffffffffffffffffffffffffffffffffff1673ffffffffffffffffffffffffffffffffffffffff163373ffffffffffffffffffffffffffffffffffffffff1614905090565b610536610ad8565b81600160008267ffffffffffffffff1667ffffffffffffffff16815260200190815260200160002060050160009054906101000a900460ff166105ae576040517f08c379a00000000000000000000000000000000000000000000000000000000081526004016105a59061114d565b60405180910390fd5b600160008467ffffffffffffffff1667ffffffffffffffff1681526020019081526020016000206040518060c00160405290816000820160009054906101000a900467ffffffffffffffff1667ffffffffffffffff1667ffffffffffffffff1681526020016001820180546106229061119c565b80601f016020809104026020016040519081016040528092919081815260200182805461064e9061119c565b801561069b5780601f106106705761010080835404028352916020019161069b565b820191906000526020600020905b81548152906001019060200180831161067e57829003601f168201915b505050505081526020016002820160009054906101000a900473ffffffffffffffffffffffffffffffffffffffff1673ffffffffffffffffffffffffffffffffffffffff1673ffffffffffffffffffffffffffffffffffffffff16815260200160038201805461070a9061119c565b80601f01602080910402602001604051908101604052809291908181526020018280546107369061119c565b80156107835780601f1061075857610100808354040283529160200191610783565b820191906000526020600020905b81548152906001019060200180831161076657829003601f168201915b5050505050815260200160048201805461079c9061119c565b80601f01602080910402602001604051908101604052809291908181526020018280546107c89061119c565b80156108155780601f106107ea57610100808354040283529160200191610815565b820191906000526020600020905b8154815290600101906020018083116107f857829003601f168201915b505050505081526020016005820160009054906101000a900460ff161515151581525050915050919050565b6108496104d7565b61085257600080fd5b61085b8161095b565b50565b600160008267ffffffffffffffff1667ffffffffffffffff168152602001908152602001600020600101604051602001610898919061126d565b60405160208183030381529060405280519060200120826040516020016108bf91906112b5565b6040516020818303038152906040528051906020012014610915576040517f08c379a000000000000000000000000000000000000000000000000000000000815260040161090c90611318565b60405180910390fd5b60018060008367ffffffffffffffff1667ffffffffffffffff16815260200190815260200160002060050160006101000a81548160ff0219169083151502179055505050565b600073ffffffffffffffffffffffffffffffffffffffff168173ffffffffffffffffffffffffffffffffffffffff16141561099557600080fd5b8073ffffffffffffffffffffffffffffffffffffffff1660008054906101000a900473ffffffffffffffffffffffffffffffffffffffff1673ffffffffffffffffffffffffffffffffffffffff167f8be0079c531659141344cd1fd0a4f28419497f9722a3daafe3b4186f6b6457e060405160405180910390a3806000806101000a81548173ffffffffffffffffffffffffffffffffffffffff021916908373ffffffffffffffffffffffffffffffffffffffff16021790555050565b828054610a5e9061119c565b90600052602060002090601f016020900481019282610a805760008555610ac7565b82601f10610a9957805160ff1916838001178555610ac7565b82800160010185558215610ac7579182015b82811115610ac6578251825591602001919060010190610aab565b5b509050610ad49190610b30565b5090565b6040518060c00160405280600067ffffffffffffffff16815260200160608152602001600073ffffffffffffffffffffffffffffffffffffffff16815260200160608152602001606081526020016000151581525090565b5b80821115610b49576000816000905550600101610b31565b5090565b6000604051905090565b600080fd5b600080fd5b600080fd5b600080fd5b6000601f19601f8301169050919050565b7f4e487b7100000000000000000000000000000000000000000000000000000000600052604160045260246000fd5b610bb482610b6b565b810181811067ffffffffffffffff82111715610bd357610bd2610b7c565b5b80604052505050565b6000610be6610b4d565b9050610bf28282610bab565b919050565b600067ffffffffffffffff821115610c1257610c11610b7c565b5b610c1b82610b6b565b9050602081019050919050565b82818337600083830152505050565b6000610c4a610c4584610bf7565b610bdc565b905082815260208101848484011115610c6657610c65610b66565b5b610c71848285610c28565b509392505050565b600082601f830112610c8e57610c8d610b61565b5b8135610c9e848260208601610c37565b91505092915050565b600067ffffffffffffffff82169050919050565b610cc481610ca7565b8114610ccf57600080fd5b50565b600081359050610ce181610cbb565b92915050565b60008060008060808587031215610d0157610d00610b57565b5b600085013567ffffffffffffffff811115610d1f57610d1e610b5c565b5b610d2b87828801610c79565b945050602085013567ffffffffffffffff811115610d4c57610d4b610b5c565b5b610d5887828801610c79565b9350506040610d6987828801610cd2565b925050606085013567ffffffffffffffff811115610d8a57610d89610b5c565b5b610d9687828801610c79565b91505092959194509250565b600073ffffffffffffffffffffffffffffffffffffffff82169050919050565b6000610dcd82610da2565b9050919050565b610ddd81610dc2565b8114610de857600080fd5b50565b600081359050610dfa81610dd4565b92915050565b600060208284031215610e1657610e15610b57565b5b6000610e2484828501610deb565b91505092915050565b610e3681610dc2565b82525050565b6000602082019050610e516000830184610e2d565b92915050565b60008115159050919050565b610e6c81610e57565b82525050565b6000602082019050610e876000830184610e63565b92915050565b600060208284031215610ea357610ea2610b57565b5b6000610eb184828501610cd2565b91505092915050565b610ec381610ca7565b82525050565b600081519050919050565b600082825260208201905092915050565b60005b83811015610f03578082015181840152602081019050610ee8565b83811115610f12576000848401525b50505050565b6000610f2382610ec9565b610f2d8185610ed4565b9350610f3d818560208601610ee5565b610f4681610b6b565b840191505092915050565b610f5a81610dc2565b82525050565b610f6981610e57565b82525050565b600060c083016000830151610f876000860182610eba565b5060208301518482036020860152610f9f8282610f18565b9150506040830151610fb46040860182610f51565b5060608301518482036060860152610fcc8282610f18565b91505060808301518482036080860152610fe68282610f18565b91505060a0830151610ffb60a0860182610f60565b508091505092915050565b600060208201905081810360008301526110208184610f6f565b905092915050565b6000806040838503121561103f5761103e610b57565b5b600083013567ffffffffffffffff81111561105d5761105c610b5c565b5b61106985828601610c79565b925050602061107a85828601610cd2565b9150509250929050565b600082825260208201905092915050565b7f506c656173652056657269667920596f757220696e7374697475746520210000600082015250565b60006110cb601e83611084565b91506110d682611095565b602082019050919050565b600060208201905081810360008301526110fa816110be565b9050919050565b7f5665726966792046697273740000000000000000000000000000000000000000600082015250565b6000611137600c83611084565b915061114282611101565b602082019050919050565b600060208201905081810360008301526111668161112a565b9050919050565b7f4e487b7100000000000000000000000000000000000000000000000000000000600052602260045260246000fd5b600060028204905060018216806111b457607f821691505b602082108114156111c8576111c761116d565b5b50919050565b600081905092915050565b60008190508160005260206000209050919050565b600081546111fb8161119c565b61120581866111ce565b94506001821660008114611220576001811461123157611264565b60ff19831686528186019350611264565b61123a856111d9565b60005b8381101561125c5781548189015260018201915060208101905061123d565b838801955050505b50505092915050565b600061127982846111ee565b915081905092915050565b600061128f82610ec9565b61129981856111ce565b93506112a9818560208601610ee5565b80840191505092915050565b60006112c18284611284565b915081905092915050565b7f5363616d00000000000000000000000000000000000000000000000000000000600082015250565b6000611302600483611084565b915061130d826112cc565b602082019050919050565b60006020820190508181036000830152611331816112f5565b905091905056fea2646970667358221220055ee06eb267d8a7baf1afe71af58891f19eb631523e490ec86b62078e4a5e4364736f6c634300080b0033",
  "immutableReferences": {},
  "source": "// SPDX-License-Identifier: GPL-3.0\n\npragma solidity >=0.7.0 <0.9.0;\nimport \"./Ownable.sol\";\ncontract Main is Ownable {\n    \n    \n     struct document {\n        uint64 adhaarId;\n        string ipfsHash;\n        address uploader;\n        string uploaderName;\n        string dateUploaded;\n        bool verified;\n    }\n\n    //map document with the adhaarId\n    mapping(uint64=>document) internal userToDoc;\n    //map address with institue name\n    mapping(address=>uint8) internal institute;\n\n    modifier validInstitute(){\n        require(institute[msg.sender]==1,\"Please Verify Your institute !\");\n        _;\n    }\n\n    /* Stores the newly created document details */\n    function StoreDocument(\n        string memory _ipfsHash, \n        string memory _uploadDate,\n        uint64 _userId,\n        string memory _uploader\n    ) external validInstitute\n    {\n        userToDoc[_userId]=document(_userId ,_ipfsHash,msg.sender, _uploader,_uploadDate,false);\n    }\n\n    function ownerVerification(address _add) public onlyOwner {\n        institute[_add]=1;\n    }\n\n    function verify(string memory _newHash,uint64 _adhaar) public \n    {\n        require (keccak256(abi.encodePacked((_newHash))) == keccak256(abi.encodePacked((userToDoc[_adhaar].ipfsHash))),\"Scam\");\n        userToDoc[_adhaar].verified=true;\n    }\n\n    modifier userVerified(uint64 _adhaar){\n        require(userToDoc[_adhaar].verified,\"Verify First\");\n        _;\n    }\n\n    //get document info\n    function GetDoc(uint64 _adhaar) view public userVerified(_adhaar) returns(document memory)\n    {\n        return userToDoc[_adhaar];\n    }\n}",
  "sourcePath": "/home/nitinjuyal/Downloads/VS Code/Web3Project/contracts/Main.sol",
  "compiler": {
    "name": "solc",
    "version": "0.8.11+commit.d7f03943.Emscripten.clang"
  },
  "schemaVersion": "3.4.6",
  "updatedAt": "2022-05-16T14:07:18.768Z",
  "networkType": "ethereum",
  "devdoc": {
    "kind": "dev",
    "methods": {
      "isOwner()": {
        "returns": {
          "_0": "true if `msg.sender` is the owner of the contract."
        }
      },
      "owner()": {
        "returns": {
          "_0": "the address of the owner."
        }
      },
      "renounceOwnership()": {
        "details": "Allows the current owner to relinquish control of the contract."
      },
      "transferOwnership(address)": {
        "details": "Allows the current owner to transfer control of the contract to a newOwner.",
        "params": {
          "newOwner": "The address to transfer ownership to."
        }
      }
    },
    "version": 1
  },
  "userdoc": {
    "kind": "user",
    "methods": {
      "renounceOwnership()": {
        "notice": "Renouncing to ownership will leave the contract without an owner. It will not be possible to call the functions with the `onlyOwner` modifier anymore."
      }
    },
    "version": 1
  }
}